S12312348E1243A68081002705B7A00120F53F202020202020202036363636363636362064
S123125420202020202020383838383838383838202020202020202020203030303030303E
S12312743030302020202020202020202039393939393939393920202020200A0D2020206E
S123129420202020363A3A3A3A3A3A362020202020202038383A3A3A3A3A3A3A3A3A383824
S12312B420202020202030303A3A3A3A3A3A3A3A3A303020202020202039393A3A3A3A3A38
S12312D43A3A3A3A39392020200A0D202020202020363A3A3A3A3A3A3620202020202038A5
S12312F4383A3A3A3A3A3A3A3A3A3A3A3A3A3838202030303A3A3A3A3A3A3A3A3A3A3A3AE4
S12313143A3030202039393A3A3A3A3A3A3A3A3A3A3A3A3A3939200A0D2020202020363ABE
S12313343A3A3A3A3A36202020202020383A3A3A3A3A3A38383838383A3A3A3A3A3A38300D
S12313543A3A3A3A3A3A3A3030303A3A3A3A3A3A3A30393A3A3A3A3A3A39393939393A3A63
S12313743A3A3A3A390A0D20202020363A3A3A3A3A3A3620202020202020383A3A3A3A3A9B
S1231394382020202020383A3A3A3A3A38303A3A3A3A3A3A30202020303A3A3A3A3A3A30F3
S12313B4393A3A3A3A3A392020202020393A3A3A3A3A390A0D202020363A3A3A3A3A3A360E
S12313D42020202020202020383A3A3A3A3A382020202020383A3A3A3A3A38303A3A3A3A19
S12313F43A302020202020303A3A3A3A3A30393A3A3A3A3A392020202020393A3A3A3A3ABA
S1231414390A0D2020363A3A3A3A3A3A3620202020202020202020383A3A3A3A3A3838381A
S123143438383A3A3A3A3A3820303A3A3A3A3A302020202020303A3A3A3A3A3020393A3A39
S12314543A3A3A39393939393A3A3A3A3A3A390A0D20363A3A3A3A3A3A3A3A3636363636C9
S1231474202020202020383A3A3A3A3A3A3A3A3A3A3A3A3A382020303A3A3A3A3A30203020
S1231494303020303A3A3A3A3A30202039393A3A3A3A3A3A3A3A3A3A3A3A3A3A390A0D36CE
S12314B43A3A3A3A3A3A3A3A3A3A3A3A3A3A3636202020383A3A3A3A3A38383838383A3A36
S12314D43A3A3A3820303A3A3A3A3A302030303020303A3A3A3A3A302020202039393939B6
S12314F4393A3A3A3A3A3A3A3A39200A0D363A3A3A3A3A3A36363636363A3A3A3A3A362043
S1231514383A3A3A3A3A382020202020383A3A3A3A3A38303A3A3A3A3A302020202020309D
S12315343A3A3A3A3A30202020202020202020393A3A3A3A3A3A3920200A0D363A3A3A3ADE
S12315543A362020202020363A3A3A3A3A36383A3A3A3A3A382020202020383A3A3A3A3A49
S123157438303A3A3A3A3A302020202020303A3A3A3A3A302020202020202020393A3A3A90
S12315943A3A3A392020200A0D363A3A3A3A3A362020202020363A3A3A3A3A36383A3A3A33
S12315B43A3A382020202020383A3A3A3A3A38303A3A3A3A3A3A30202020303A3A3A3A3AC7
S12315D43A3020202020202020393A3A3A3A3A3A39202020200A0D363A3A3A3A3A3A363646
S12315F43636363A3A3A3A3A3A36383A3A3A3A3A3A38383838383A3A3A3A3A3A38303A3ABB
S12316143A3A3A3A3A3030303A3A3A3A3A3A3A30202020202020393A3A3A3A3A3A3920206C
S12316342020200A0D2036363A3A3A3A3A3A3A3A3A3A3A3A3A3636202038383A3A3A3A3A5F
S12316543A3A3A3A3A3A3A3A3838202030303A3A3A3A3A3A3A3A3A3A3A3A3A3030202020E0
S1231674202020393A3A3A3A3A3A392020202020200A0D20202036363A3A3A3A3A3A3A3AB1
S12316943A363620202020202038383A3A3A3A3A3A3A3A3A383820202020202030303A3A4E
S12316B43A3A3A3A3A3A3A303020202020202020393A3A3A3A3A3A39202020202020200A84
S12316D40D2020202020363636363636363636202020202020202020203838383838383897
S12316F43838202020202020202020203030303030303030302020202020202020393939C7
S1131714393939393920202020202020200A0D008D
S9030000FC
